{
  "_format": "hh-sol-artifact-1",
  "contractName": "Escrow",
  "sourceName": "contracts/Escrow.sol",
  "abi": [
    {
      "inputs": [
        {
          "internalType": "uint256",
          "name": "_amount",
          "type": "uint256"
        },
        {
          "internalType": "uint256",
          "name": "_fee",
          "type": "uint256"
        },
        {
          "internalType": "address",
          "name": "_seller",
          "type": "address"
        },
        {
          "internalType": "address",
          "name": "_buyer",
          "type": "address"
        }
      ],
      "stateMutability": "nonpayable",
      "type": "constructor"
    },
    {
      "inputs": [],
      "name": "adjudicate",
      "outputs": [],
      "stateMutability": "nonpayable",
      "type": "function"
    },
    {
      "inputs": [],
      "name": "amount",
      "outputs": [
        {
          "internalType": "uint256",
          "name": "",
          "type": "uint256"
        }
      ],
      "stateMutability": "view",
      "type": "function"
    },
    {
      "inputs": [],
      "name": "balanceOf",
      "outputs": [
        {
          "internalType": "uint256",
          "name": "",
          "type": "uint256"
        }
      ],
      "stateMutability": "view",
      "type": "function"
    },
    {
      "inputs": [],
      "name": "buyer",
      "outputs": [
        {
          "internalType": "address",
          "name": "",
          "type": "address"
        }
      ],
      "stateMutability": "view",
      "type": "function"
    },
    {
      "inputs": [],
      "name": "confirm",
      "outputs": [],
      "stateMutability": "nonpayable",
      "type": "function"
    },
    {
      "inputs": [],
      "name": "deposit",
      "outputs": [],
      "stateMutability": "payable",
      "type": "function"
    },
    {
      "inputs": [],
      "name": "fee",
      "outputs": [
        {
          "internalType": "uint256",
          "name": "",
          "type": "uint256"
        }
      ],
      "stateMutability": "view",
      "type": "function"
    },
    {
      "inputs": [],
      "name": "jury",
      "outputs": [
        {
          "internalType": "address payable",
          "name": "",
          "type": "address"
        }
      ],
      "stateMutability": "view",
      "type": "function"
    },
    {
      "inputs": [],
      "name": "release",
      "outputs": [],
      "stateMutability": "nonpayable",
      "type": "function"
    },
    {
      "inputs": [
        {
          "internalType": "address",
          "name": "_winner",
          "type": "address"
        }
      ],
      "name": "resolve",
      "outputs": [],
      "stateMutability": "nonpayable",
      "type": "function"
    },
    {
      "inputs": [],
      "name": "seller",
      "outputs": [
        {
          "internalType": "address payable",
          "name": "",
          "type": "address"
        }
      ],
      "stateMutability": "view",
      "type": "function"
    },
    {
      "inputs": [],
      "name": "status",
      "outputs": [
        {
          "internalType": "enum Escrow.Status",
          "name": "",
          "type": "uint8"
        }
      ],
      "stateMutability": "view",
      "type": "function"
    }
  ],
  "bytecode": "0x60806040523480156200001157600080fd5b50604051620016be380380620016be833981810160405281019062000037919062000191565b33600260006101000a81548173ffffffffffffffffffffffffffffffffffffffff021916908373ffffffffffffffffffffffffffffffffffffffff16021790555081600160006101000a81548173ffffffffffffffffffffffffffffffffffffffff021916908373ffffffffffffffffffffffffffffffffffffffff160217905550806000806101000a81548173ffffffffffffffffffffffffffffffffffffffff021916908373ffffffffffffffffffffffffffffffffffffffff16021790555083600381905550826004819055506000600560006101000a81548160ff0219169083600681111562000154577f4e487b7100000000000000000000000000000000000000000000000000000000600052602160045260246000fd5b0217905550505050506200026f565b60008151905062000174816200023b565b92915050565b6000815190506200018b8162000255565b92915050565b60008060008060808587031215620001a857600080fd5b6000620001b8878288016200017a565b9450506020620001cb878288016200017a565b9350506040620001de8782880162000163565b9250506060620001f18782880162000163565b91505092959194509250565b60006200020a8262000211565b9050919050565b600073ffffffffffffffffffffffffffffffffffffffff82169050919050565b6000819050919050565b6200024681620001fd565b81146200025257600080fd5b50565b620002608162000231565b81146200026c57600080fd5b50565b61143f806200027f6000396000f3fe6080604052600436106100a75760003560e01c80637150d8ae116100645780637150d8ae14610184578063722713f7146101af57806386d1a69f146101da578063aa8c217c146101f1578063d0e30db01461021c578063ddca3f4314610226576100a7565b806308551a53146100ac57806309fd3f6e146100d7578063200d2ed2146101025780633f152d4e1461012d57806355ea6c47146101445780637022b58e1461016d575b600080fd5b3480156100b857600080fd5b506100c1610251565b6040516100ce9190610f2b565b60405180910390f35b3480156100e357600080fd5b506100ec610277565b6040516100f99190610f2b565b60405180910390f35b34801561010e57600080fd5b5061011761029d565b6040516101249190610f46565b60405180910390f35b34801561013957600080fd5b506101426102b0565b005b34801561015057600080fd5b5061016b60048036038101906101669190610d4d565b6103c6565b005b34801561017957600080fd5b5061018261062c565b005b34801561019057600080fd5b506101996107cf565b6040516101a69190610f10565b60405180910390f35b3480156101bb57600080fd5b506101c46107f3565b6040516101d191906110a1565b60405180910390f35b3480156101e657600080fd5b506101ef6107fb565b005b3480156101fd57600080fd5b50610206610b45565b60405161021391906110a1565b60405180910390f35b610224610b4b565b005b34801561023257600080fd5b5061023b610d32565b60405161024891906110a1565b60405180910390f35b600160009054906101000a900473ffffffffffffffffffffffffffffffffffffffff1681565b600260009054906101000a900473ffffffffffffffffffffffffffffffffffffffff1681565b600560009054906101000a900460ff1681565b600060068111156102ea577f4e487b7100000000000000000000000000000000000000000000000000000000600052602160045260246000fd5b600560009054906101000a900460ff166006811115610332577f4e487b7100000000000000000000000000000000000000000000000000000000600052602160045260246000fd5b1415610373576040517f08c379a000000000000000000000000000000000000000000000000000000000815260040161036a90610f81565b60405180910390fd5b6002600560006101000a81548160ff021916908360068111156103bf577f4e487b7100000000000000000000000000000000000000000000000000000000600052602160045260246000fd5b0217905550565b600260009054906101000a900473ffffffffffffffffffffffffffffffffffffffff1673ffffffffffffffffffffffffffffffffffffffff163373ffffffffffffffffffffffffffffffffffffffff1614610456576040517f08c379a000000000000000000000000000000000000000000000000000000000815260040161044d90610fa1565b60405180910390fd5b60026006811115610490577f4e487b7100000000000000000000000000000000000000000000000000000000600052602160045260246000fd5b600560009054906101000a900460ff1660068111156104d8577f4e487b7100000000000000000000000000000000000000000000000000000000600052602160045260246000fd5b14610518576040517f08c379a000000000000000000000000000000000000000000000000000000000815260040161050f90610f61565b60405180910390fd5b60058060006101000a81548160ff02191690836006811115610563577f4e487b7100000000000000000000000000000000000000000000000000000000600052602160045260246000fd5b02179055508073ffffffffffffffffffffffffffffffffffffffff166108fc60045460035461059291906110cd565b9081150290604051600060405180830381858888f193505050501580156105bd573d6000803e3d6000fd5b50600260009054906101000a900473ffffffffffffffffffffffffffffffffffffffff1673ffffffffffffffffffffffffffffffffffffffff166108fc6004549081150290604051600060405180830381858888f19350505050158015610628573d6000803e3d6000fd5b5050565b60008054906101000a900473ffffffffffffffffffffffffffffffffffffffff1673ffffffffffffffffffffffffffffffffffffffff163373ffffffffffffffffffffffffffffffffffffffff16146106ba576040517f08c379a00000000000000000000000000000000000000000000000000000000081526004016106b190611021565b60405180910390fd5b600160068111156106f4577f4e487b7100000000000000000000000000000000000000000000000000000000600052602160045260246000fd5b600560009054906101000a900460ff16600681111561073c577f4e487b7100000000000000000000000000000000000000000000000000000000600052602160045260246000fd5b1461077c576040517f08c379a000000000000000000000000000000000000000000000000000000000815260040161077390611001565b60405180910390fd5b6006600560006101000a81548160ff021916908360068111156107c8577f4e487b7100000000000000000000000000000000000000000000000000000000600052602160045260246000fd5b0217905550565b60008054906101000a900473ffffffffffffffffffffffffffffffffffffffff1681565b600047905090565b600160009054906101000a900473ffffffffffffffffffffffffffffffffffffffff1673ffffffffffffffffffffffffffffffffffffffff163373ffffffffffffffffffffffffffffffffffffffff161461088b576040517f08c379a000000000000000000000000000000000000000000000000000000000815260040161088290611041565b60405180910390fd5b600260068111156108c5577f4e487b7100000000000000000000000000000000000000000000000000000000600052602160045260246000fd5b600560009054906101000a900460ff16600681111561090d577f4e487b7100000000000000000000000000000000000000000000000000000000600052602160045260246000fd5b141561094e576040517f08c379a000000000000000000000000000000000000000000000000000000000815260040161094590611061565b60405180910390fd5b600680811115610987577f4e487b7100000000000000000000000000000000000000000000000000000000600052602160045260246000fd5b600560009054906101000a900460ff1660068111156109cf577f4e487b7100000000000000000000000000000000000000000000000000000000600052602160045260246000fd5b14610a0f576040517f08c379a0000000000000000000000000000000000000000000000000000000008152600401610a0690610fe1565b60405180910390fd5b600160009054906101000a900473ffffffffffffffffffffffffffffffffffffffff1673ffffffffffffffffffffffffffffffffffffffff166108fc600454600354610a5b91906110cd565b9081150290604051600060405180830381858888f19350505050158015610a86573d6000803e3d6000fd5b50600260009054906101000a900473ffffffffffffffffffffffffffffffffffffffff1673ffffffffffffffffffffffffffffffffffffffff166108fc6004549081150290604051600060405180830381858888f19350505050158015610af1573d6000803e3d6000fd5b506003600560006101000a81548160ff02191690836006811115610b3e577f4e487b7100000000000000000000000000000000000000000000000000000000600052602160045260246000fd5b0217905550565b60035481565b60008054906101000a900473ffffffffffffffffffffffffffffffffffffffff1673ffffffffffffffffffffffffffffffffffffffff163373ffffffffffffffffffffffffffffffffffffffff1614610bd9576040517f08c379a0000000000000000000000000000000000000000000000000000000008152600401610bd090611021565b60405180910390fd5b60006006811115610c13577f4e487b7100000000000000000000000000000000000000000000000000000000600052602160045260246000fd5b600560009054906101000a900460ff166006811115610c5b577f4e487b7100000000000000000000000000000000000000000000000000000000600052602160045260246000fd5b14610c9b576040517f08c379a0000000000000000000000000000000000000000000000000000000008152600401610c9290611081565b60405180910390fd5b6003543414610cdf576040517f08c379a0000000000000000000000000000000000000000000000000000000008152600401610cd690610fc1565b60405180910390fd5b6001600560006101000a81548160ff02191690836006811115610d2b577f4e487b7100000000000000000000000000000000000000000000000000000000600052602160045260246000fd5b0217905550565b60045481565b600081359050610d47816113f2565b92915050565b600060208284031215610d5f57600080fd5b6000610d6d84828501610d38565b91505092915050565b610d7f81611113565b82525050565b610d8e81611101565b82525050565b610d9d81611162565b82525050565b6000610db0601b836110bc565b9150610dbb826111d2565b602082019050919050565b6000610dd36014836110bc565b9150610dde826111fb565b602082019050919050565b6000610df6601b836110bc565b9150610e0182611224565b602082019050919050565b6000610e196025836110bc565b9150610e248261124d565b604082019050919050565b6000610e3c601f836110bc565b9150610e478261129c565b602082019050919050565b6000610e5f601a836110bc565b9150610e6a826112c5565b602082019050919050565b6000610e826012836110bc565b9150610e8d826112ee565b602082019050919050565b6000610ea56025836110bc565b9150610eb082611317565b604082019050919050565b6000610ec86021836110bc565b9150610ed382611366565b604082019050919050565b6000610eeb6018836110bc565b9150610ef6826113b5565b602082019050919050565b610f0a81611158565b82525050565b6000602082019050610f256000830184610d85565b92915050565b6000602082019050610f406000830184610d76565b92915050565b6000602082019050610f5b6000830184610d94565b92915050565b60006020820190508181036000830152610f7a81610da3565b9050919050565b60006020820190508181036000830152610f9a81610dc6565b9050919050565b60006020820190508181036000830152610fba81610de9565b9050919050565b60006020820190508181036000830152610fda81610e0c565b9050919050565b60006020820190508181036000830152610ffa81610e2f565b9050919050565b6000602082019050818103600083015261101a81610e52565b9050919050565b6000602082019050818103600083015261103a81610e75565b9050919050565b6000602082019050818103600083015261105a81610e98565b9050919050565b6000602082019050818103600083015261107a81610ebb565b9050919050565b6000602082019050818103600083015261109a81610ede565b9050919050565b60006020820190506110b66000830184610f01565b92915050565b600082825260208201905092915050565b60006110d882611158565b91506110e383611158565b9250828210156110f6576110f5611174565b5b828203905092915050565b600061110c82611138565b9050919050565b600061111e82611138565b9050919050565b6000819050611133826113de565b919050565b600073ffffffffffffffffffffffffffffffffffffffff82169050919050565b6000819050919050565b600061116d82611125565b9050919050565b7f4e487b7100000000000000000000000000000000000000000000000000000000600052601160045260246000fd5b7f4e487b7100000000000000000000000000000000000000000000000000000000600052602160045260246000fd5b7f436f6e7472616374206973206e6f742061646a75646963617465640000000000600082015250565b7f436f6e7472616374206973206e6f742070616964000000000000000000000000600082015250565b7f4f6e6c7920746865206a7572792063616e2063616c6c20746869730000000000600082015250565b7f54686520616d6f756e74206d75737420626520657175616c20746f207468652060008201527f66756e6473000000000000000000000000000000000000000000000000000000602082015250565b7f436f6e747261637420686173206e6f74206265656e20636f6e6669726d656400600082015250565b7f436f6e747261637420686173206e6f74206265656e2070616964000000000000600082015250565b7f4f6e6c7920746865206275796572207061790000000000000000000000000000600082015250565b7f4f6e6c79207468652073656c6c65722063616e2072656c65617365207468652060008201527f66756e6473000000000000000000000000000000000000000000000000000000602082015250565b7f457363726f7720697320696e2061646a756469636174696f6e2070726f63657360008201527f7300000000000000000000000000000000000000000000000000000000000000602082015250565b7f436f6e747261637420697320616c726561647920706169640000000000000000600082015250565b600781106113ef576113ee6111a3565b5b50565b6113fb81611101565b811461140657600080fd5b5056fea2646970667358221220c4680bcb0a30957eeb9fc035514b4f522e3c4517d8566f579f5ae9a1478a420464736f6c63430008040033",
  "linkReferences": {},
  "deployedLinkReferences": {}
}